{
  "contractName": "Airline",
  "abi": [
    {
      "inputs": [],
      "payable": false,
      "stateMutability": "nonpayable",
      "type": "constructor"
    },
    {
      "anonymous": false,
      "inputs": [
        {
          "indexed": true,
          "internalType": "address",
          "name": "customer",
          "type": "address"
        },
        {
          "indexed": false,
          "internalType": "uint256",
          "name": "price",
          "type": "uint256"
        },
        {
          "indexed": false,
          "internalType": "string",
          "name": "flight",
          "type": "string"
        }
      ],
      "name": "FlightPurchased",
      "type": "event"
    },
    {
      "constant": true,
      "inputs": [
        {
          "internalType": "address",
          "name": "",
          "type": "address"
        }
      ],
      "name": "customerTotalFlights",
      "outputs": [
        {
          "internalType": "uint256",
          "name": "",
          "type": "uint256"
        }
      ],
      "payable": false,
      "stateMutability": "view",
      "type": "function"
    },
    {
      "constant": true,
      "inputs": [
        {
          "internalType": "address",
          "name": "",
          "type": "address"
        }
      ],
      "name": "customers",
      "outputs": [
        {
          "internalType": "uint256",
          "name": "loyaltyPoints",
          "type": "uint256"
        },
        {
          "internalType": "uint256",
          "name": "totalFlights",
          "type": "uint256"
        }
      ],
      "payable": false,
      "stateMutability": "view",
      "type": "function"
    },
    {
      "constant": true,
      "inputs": [
        {
          "internalType": "address",
          "name": "",
          "type": "address"
        },
        {
          "internalType": "uint256",
          "name": "",
          "type": "uint256"
        }
      ],
      "name": "customersFlights",
      "outputs": [
        {
          "internalType": "string",
          "name": "name",
          "type": "string"
        },
        {
          "internalType": "uint256",
          "name": "price",
          "type": "uint256"
        }
      ],
      "payable": false,
      "stateMutability": "view",
      "type": "function"
    },
    {
      "constant": true,
      "inputs": [
        {
          "internalType": "uint256",
          "name": "",
          "type": "uint256"
        }
      ],
      "name": "flights",
      "outputs": [
        {
          "internalType": "string",
          "name": "name",
          "type": "string"
        },
        {
          "internalType": "uint256",
          "name": "price",
          "type": "uint256"
        }
      ],
      "payable": false,
      "stateMutability": "view",
      "type": "function"
    },
    {
      "constant": true,
      "inputs": [],
      "name": "owner",
      "outputs": [
        {
          "internalType": "address",
          "name": "",
          "type": "address"
        }
      ],
      "payable": false,
      "stateMutability": "view",
      "type": "function"
    },
    {
      "constant": false,
      "inputs": [
        {
          "internalType": "uint256",
          "name": "flightIndex",
          "type": "uint256"
        }
      ],
      "name": "buyFlight",
      "outputs": [],
      "payable": true,
      "stateMutability": "payable",
      "type": "function"
    },
    {
      "constant": true,
      "inputs": [],
      "name": "totalFlights",
      "outputs": [
        {
          "internalType": "uint256",
          "name": "",
          "type": "uint256"
        }
      ],
      "payable": false,
      "stateMutability": "view",
      "type": "function"
    },
    {
      "constant": false,
      "inputs": [],
      "name": "redeemLoyaltyPoints",
      "outputs": [],
      "payable": false,
      "stateMutability": "nonpayable",
      "type": "function"
    },
    {
      "constant": true,
      "inputs": [],
      "name": "getRefundableEther",
      "outputs": [
        {
          "internalType": "uint256",
          "name": "",
          "type": "uint256"
        }
      ],
      "payable": false,
      "stateMutability": "view",
      "type": "function"
    },
    {
      "constant": true,
      "inputs": [],
      "name": "getAirlineBalance",
      "outputs": [
        {
          "internalType": "uint256",
          "name": "",
          "type": "uint256"
        }
      ],
      "payable": false,
      "stateMutability": "view",
      "type": "function"
    }
  ],
  "bytecode": "0x60806040526706f05b59d3b2000060015534801561001c57600080fd5b50336000806101000a81548173ffffffffffffffffffffffffffffffffffffffff021916908373ffffffffffffffffffffffffffffffffffffffff160217905550600260405180604001604052806040518060400160405280600581526020017f546f6b696f0000000000000000000000000000000000000000000000000000008152508152602001673782dace9d9000008152509080600181540180825580915050906001820390600052602060002090600202016000909192909190915060008201518160000190805190602001906100f892919061025d565b5060208201518160010155505050600260405180604001604052806040518060400160405280600881526020017f416c656d616e696100000000000000000000000000000000000000000000000081525081526020016729a2241af62c00008152509080600181540180825580915050906001820390600052602060002090600202016000909192909190915060008201518160000190805190602001906101a192919061025d565b5060208201518160010155505050600260405180604001604052806040518060400160405280600681526020017f4d6164726964000000000000000000000000000000000000000000000000000081525081526020016729a2241af62c000081525090806001815401808255809150509060018203906000526020600020906002020160009091929091909150600082015181600001908051906020019061024a92919061025d565b5060208201518160010155505050610302565b828054600181600116156101000203166002900490600052602060002090601f016020900481019282601f1061029e57805160ff19168380011785556102cc565b828001600101855582156102cc579182015b828111156102cb5782518255916020019190600101906102b0565b5b5090506102d991906102dd565b5090565b6102ff91905b808211156102fb5760008160009055506001016102e3565b5090565b90565b610b8d806103116000396000f3fe6080604052600436106100915760003560e01c80633a34becd116100595780633a34becd146102415780634bf02e7a1461031c5780638da5cb5b14610347578063f269365a1461039e578063f997114f1461040357610091565b80630ca97e481461009657806315ccf70f146100c45780632411ff731461017f57806329cd30b4146101aa578063336989ae146101d5575b600080fd5b6100c2600480360360208110156100ac57600080fd5b810190808035906020019092919050505061041a565b005b3480156100d057600080fd5b506100fd600480360360208110156100e757600080fd5b810190808035906020019092919050505061071b565b6040518080602001838152602001828103825284818151815260200191508051906020019080838360005b83811015610143578082015181840152602081019050610128565b50505050905090810190601f1680156101705780820380516001836020036101000a031916815260200191505b50935050505060405180910390f35b34801561018b57600080fd5b506101946107e4565b6040518082815260200191505060405180910390f35b3480156101b657600080fd5b506101bf610832565b6040518082815260200191505060405180910390f35b3480156101e157600080fd5b50610224600480360360208110156101f857600080fd5b81019080803573ffffffffffffffffffffffffffffffffffffffff1690602001909291905050506108b0565b604051808381526020018281526020019250505060405180910390f35b34801561024d57600080fd5b5061029a6004803603604081101561026457600080fd5b81019080803573ffffffffffffffffffffffffffffffffffffffff169060200190929190803590602001909291905050506108d4565b6040518080602001838152602001828103825284818151815260200191508051906020019080838360005b838110156102e05780820151818401526020810190506102c5565b50505050905090810190601f16801561030d5780820380516001836020036101000a031916815260200191505b50935050505060405180910390f35b34801561032857600080fd5b506103316109aa565b6040518082815260200191505060405180910390f35b34801561035357600080fd5b5061035c6109b7565b604051808273ffffffffffffffffffffffffffffffffffffffff1673ffffffffffffffffffffffffffffffffffffffff16815260200191505060405180910390f35b3480156103aa57600080fd5b506103ed600480360360208110156103c157600080fd5b81019080803573ffffffffffffffffffffffffffffffffffffffff1690602001909291905050506109dc565b6040518082815260200191505060405180910390f35b34801561040f57600080fd5b506104186109f4565b005b610422610a99565b6002828154811061042f57fe5b9060005260206000209060020201604051806040016040529081600082018054600181600116156101000203166002900480601f0160208091040260200160405190810160405280929190818152602001828054600181600116156101000203166002900480156104e15780601f106104b6576101008083540402835291602001916104e1565b820191906000526020600020905b8154815290600101906020018083116104c457829003601f168201915b5050505050815260200160018201548152505090508060200151341461050657600080fd5b6000600360003373ffffffffffffffffffffffffffffffffffffffff1673ffffffffffffffffffffffffffffffffffffffff16815260200190815260200160002090506005816000016000828254019250508190555060018160010160008282540192505081905550600460003373ffffffffffffffffffffffffffffffffffffffff1673ffffffffffffffffffffffffffffffffffffffff168152602001908152602001600020829080600181540180825580915050906001820390600052602060002090600202016000909192909190915060008201518160000190805190602001906105f6929190610ab3565b5060208201518160010155505050600560003373ffffffffffffffffffffffffffffffffffffffff1673ffffffffffffffffffffffffffffffffffffffff168152602001908152602001600020600081548092919060010191905055503373ffffffffffffffffffffffffffffffffffffffff167f1a02c9b180301ecb4108648e8e1cd231f2857cc169519367000f7380f57566c4836020015184600001516040518083815260200180602001828103825283818151815260200191508051906020019080838360005b838110156106db5780820151818401526020810190506106c0565b50505050905090810190601f1680156107085780820380516001836020036101000a031916815260200191505b50935050505060405180910390a2505050565b6002818154811061072857fe5b9060005260206000209060020201600091509050806000018054600181600116156101000203166002900480601f0160208091040260200160405190810160405280929190818152602001828054600181600116156101000203166002900480156107d45780601f106107a9576101008083540402835291602001916107d4565b820191906000526020600020905b8154815290600101906020018083116107b757829003601f168201915b5050505050908060010154905082565b6000600360003373ffffffffffffffffffffffffffffffffffffffff1673ffffffffffffffffffffffffffffffffffffffff1681526020019081526020016000206000015460015402905090565b60008060009054906101000a900473ffffffffffffffffffffffffffffffffffffffff1673ffffffffffffffffffffffffffffffffffffffff163373ffffffffffffffffffffffffffffffffffffffff161461088d57600080fd5b60003090508073ffffffffffffffffffffffffffffffffffffffff163191505090565b60036020528060005260406000206000915090508060000154908060010154905082565b600460205281600052604060002081815481106108ed57fe5b906000526020600020906002020160009150915050806000018054600181600116156101000203166002900480601f01602080910402602001604051908101604052809291908181526020018280546001816001161561010002031660029004801561099a5780601f1061096f5761010080835404028352916020019161099a565b820191906000526020600020905b81548152906001019060200180831161097d57829003601f168201915b5050505050908060010154905082565b6000600280549050905090565b6000809054906101000a900473ffffffffffffffffffffffffffffffffffffffff1681565b60056020528060005260406000206000915090505481565b6000600360003373ffffffffffffffffffffffffffffffffffffffff1673ffffffffffffffffffffffffffffffffffffffff1681526020019081526020016000209050600081600001546001540290503373ffffffffffffffffffffffffffffffffffffffff166108fc829081150290604051600060405180830381858888f19350505050158015610a8a573d6000803e3d6000fd5b50600082600001819055505050565b604051806040016040528060608152602001600081525090565b828054600181600116156101000203166002900490600052602060002090601f016020900481019282601f10610af457805160ff1916838001178555610b22565b82800160010185558215610b22579182015b82811115610b21578251825591602001919060010190610b06565b5b509050610b2f9190610b33565b5090565b610b5591905b80821115610b51576000816000905550600101610b39565b5090565b9056fea265627a7a723158209e95c00755e31325f47dfba520709bc28f0a62128768f325333f31b41580725c64736f6c63430005100032",
  "source": "pragma solidity >=0.4.22 <0.9.0;\n\ncontract Airline {\n    address public owner;\n\n    struct Customer {\n        uint256 loyaltyPoints;\n        uint256 totalFlights;\n    }\n\n    struct Flight {\n        string name;\n        uint256 price;\n    }\n\n    //las variables globales son las que se guardan en persistencia\n\n    uint etherPerPoint = 0.5 ether;\n\n    Flight[] public flights;\n    mapping(address => Customer) public customers;\n    mapping(address => Flight[]) public customersFlights;\n    mapping(address => uint256) public customerTotalFlights;\n\n    // Evento: envia una respuesta a un usuario, como un mensaje al parecer\n    event FlightPurchased(address indexed customer, uint256 price, string flight);\n\n    constructor() public {\n        owner = msg.sender;\n        flights.push(Flight(\"Tokio\", 4 ether));\n        flights.push(Flight(\"Alemania\", 3 ether));\n        flights.push(Flight(\"Madrid\", 3 ether));\n    }\n\n    // el payable se usa con las funciones que reciben dinero\n    function buyFlight(uint256 flightIndex) public payable {\n        Flight memory flight = flights[flightIndex];\n        require(msg.value == flight.price);\n        //El storage hace que la variable apunte al mismo espacio de memoria que el mapping por lo tanto se guarda en persistencia\n        Customer storage customer = customers[msg.sender];\n        customer.loyaltyPoints += 5;\n        customer.totalFlights += 1;\n\n        customersFlights[msg.sender].push(flight);\n        //creo que no esta sumando se queda en 1 siempre o falla mi logica\n        customerTotalFlights[msg.sender]++;\n\n        emit FlightPurchased(msg.sender, flight.price, flight.name);\n    }\n\n    function totalFlights() public view returns (uint256) {\n        return flights.length;\n    }\n\n    function redeemLoyaltyPoints() public{\n        Customer storage customer = customers[msg.sender];\n        uint etherToRefund = etherPerPoint * customer.loyaltyPoints;\n        //payable(msg.sender).transfer(etherToRefund);\n        msg.sender.transfer(etherToRefund);\n        customer.loyaltyPoints =0;\n        \n    }\n\n    function getRefundableEther() public view returns(uint){        \n        return etherPerPoint * customers[msg.sender].loyaltyPoints;\n    }\n\n    function getAirlineBalance() public isOwner view returns (uint){    \n        // address(this) obtiene la dirección del contrato    \n        address airlineAddress = address(this);\n        return airlineAddress.balance; // balance devuelve el saldo de una cuenta\n    }\n\n    // son funciones que se pueden insertar en otra para cumplir con x caracteristica\n    modifier isOwner(){\n        require(msg.sender == owner);\n        _; // acá se ejecuta la función\n    }\n\n\n\n\n\n}\n",
  "sourcePath": "/home/felipe/Documentos/Blockchain/codigo/curso-etheretum/aerolinea/contracts/Airline.sol",
  "compiler": {
    "name": "solc",
    "version": "0.5.16+commit.9c3226ce.Emscripten.clang"
  },
  "schemaVersion": "3.4.3",
  "updatedAt": "2021-10-29T02:10:46.151Z",
  "networkType": "ethereum",
  "devdoc": {
    "methods": {}
  },
  "userdoc": {
    "methods": {}
  }
}